{
  "contractName": "FreelanceContract",
  "abi": [
    {
      "inputs": [
        {
          "internalType": "address",
          "name": "_client",
          "type": "address"
        },
        {
          "internalType": "address",
          "name": "_developer",
          "type": "address"
        },
        {
          "internalType": "uint256",
          "name": "_value",
          "type": "uint256"
        },
        {
          "internalType": "uint256",
          "name": "_deliveryDays",
          "type": "uint256"
        }
      ],
      "payable": false,
      "stateMutability": "nonpayable",
      "type": "constructor"
    },
    {
      "anonymous": false,
      "inputs": [],
      "name": "ClientAcceptedDelivery",
      "type": "event"
    },
    {
      "anonymous": false,
      "inputs": [],
      "name": "ContractAccepted",
      "type": "event"
    },
    {
      "anonymous": false,
      "inputs": [],
      "name": "ProjectDelivered",
      "type": "event"
    },
    {
      "constant": true,
      "inputs": [],
      "name": "client",
      "outputs": [
        {
          "internalType": "address payable",
          "name": "",
          "type": "address"
        }
      ],
      "payable": false,
      "stateMutability": "view",
      "type": "function"
    },
    {
      "constant": true,
      "inputs": [],
      "name": "clientAccepted",
      "outputs": [
        {
          "internalType": "bool",
          "name": "",
          "type": "bool"
        }
      ],
      "payable": false,
      "stateMutability": "view",
      "type": "function"
    },
    {
      "constant": true,
      "inputs": [],
      "name": "clientAcceptedDelivery",
      "outputs": [
        {
          "internalType": "bool",
          "name": "",
          "type": "bool"
        }
      ],
      "payable": false,
      "stateMutability": "view",
      "type": "function"
    },
    {
      "constant": true,
      "inputs": [],
      "name": "contractAccepted",
      "outputs": [
        {
          "internalType": "bool",
          "name": "",
          "type": "bool"
        }
      ],
      "payable": false,
      "stateMutability": "view",
      "type": "function"
    },
    {
      "constant": true,
      "inputs": [],
      "name": "deliveryDeadline",
      "outputs": [
        {
          "internalType": "uint256",
          "name": "",
          "type": "uint256"
        }
      ],
      "payable": false,
      "stateMutability": "view",
      "type": "function"
    },
    {
      "constant": true,
      "inputs": [],
      "name": "developer",
      "outputs": [
        {
          "internalType": "address payable",
          "name": "",
          "type": "address"
        }
      ],
      "payable": false,
      "stateMutability": "view",
      "type": "function"
    },
    {
      "constant": true,
      "inputs": [],
      "name": "developerAccepted",
      "outputs": [
        {
          "internalType": "bool",
          "name": "",
          "type": "bool"
        }
      ],
      "payable": false,
      "stateMutability": "view",
      "type": "function"
    },
    {
      "constant": true,
      "inputs": [],
      "name": "projectDelivered",
      "outputs": [
        {
          "internalType": "bool",
          "name": "",
          "type": "bool"
        }
      ],
      "payable": false,
      "stateMutability": "view",
      "type": "function"
    },
    {
      "constant": true,
      "inputs": [],
      "name": "value",
      "outputs": [
        {
          "internalType": "uint256",
          "name": "",
          "type": "uint256"
        }
      ],
      "payable": false,
      "stateMutability": "view",
      "type": "function"
    },
    {
      "constant": false,
      "inputs": [],
      "name": "acceptContractByClient",
      "outputs": [],
      "payable": false,
      "stateMutability": "nonpayable",
      "type": "function"
    },
    {
      "constant": false,
      "inputs": [],
      "name": "acceptContractByDeveloper",
      "outputs": [],
      "payable": false,
      "stateMutability": "nonpayable",
      "type": "function"
    },
    {
      "constant": false,
      "inputs": [],
      "name": "markProjectDelivered",
      "outputs": [],
      "payable": false,
      "stateMutability": "nonpayable",
      "type": "function"
    },
    {
      "constant": false,
      "inputs": [],
      "name": "acceptProjectDeliveryByClient",
      "outputs": [],
      "payable": false,
      "stateMutability": "nonpayable",
      "type": "function"
    },
    {
      "constant": false,
      "inputs": [],
      "name": "transferFundsAfterDelivery",
      "outputs": [],
      "payable": false,
      "stateMutability": "nonpayable",
      "type": "function"
    },
    {
      "constant": false,
      "inputs": [],
      "name": "requestRefund",
      "outputs": [],
      "payable": false,
      "stateMutability": "nonpayable",
      "type": "function"
    }
  ],
  "bytecode": "0x608060405234801561001057600080fd5b50604051610a24380380610a248339818101604052608081101561003357600080fd5b50805160208201516040830151606090930151600080546001600160a01b039384166001600160a01b03199182161790915560018054939094169216919091179091556002919091554262015180909102016004556003805464ffffffffff1916905561097f806100a56000396000f3fe608060405234801561001057600080fd5b50600436106100f55760003560e01c80638f13b59a11610097578063d48f108911610066578063d48f108914610196578063d5cef1331461019e578063ea180192146101a6578063ec119253146101ae576100f5565b80638f13b59a14610176578063a0d208981461017e578063a729c92f14610186578063ca4b208b1461018e576100f5565b80633fa4f245116100d35780633fa4f2451461013057806346e795d91461014a57806357549eb01461016657806374c745211461016e576100f5565b8063109e94cf146100fa57806323d285fd1461011e5780633d952ad914610128575b600080fd5b6101026101b6565b604080516001600160a01b039092168252519081900360200190f35b6101266101c5565b005b6101266103da565b61013861043c565b60408051918252519081900360200190f35b610152610442565b604080519115158252519081900360200190f35b610138610450565b610152610456565b610152610466565b610126610475565b61015261055c565b610102610565565b610126610574565b610126610652565b610152610730565b610126610741565b6001546001600160a01b031681565b6003546301000000900460ff16610223576040805162461bcd60e51b815260206004820152601f60248201527f50726f6a656374206d7573742062652064656c69766572656420666972737400604482015290519081900360640190fd5b600354640100000000900460ff1661026c5760405162461bcd60e51b81526004018080602001828103825260238152602001806107f66023913960400191505060405180910390fd5b6000546001600160a01b031633146102b55760405162461bcd60e51b815260040180806020018281038252602d815260200180610840602d913960400191505060405180910390fd5b60025447101561030c576040805162461bcd60e51b815260206004820152601d60248201527f496e73756666696369656e7420636f6e74726163742062616c616e6365000000604482015290519081900360640190fd5b600254604051735b38da6a701c568545dcfcb03fcb875f56beddc491606460059091020490829082156108fc029083906000818181858888f1935050505015801561035b573d6000803e3d6000fd5b50600080546002546040516001600160a01b03909216919084900380156108fc029184818181858888f193505050509050806103d5576040805162461bcd60e51b8152602060048201526014602482015273119d5b99081d1c985b9cd9995c8819985a5b195960621b604482015290519081900360640190fd5b505050565b6000546001600160a01b031633146104235760405162461bcd60e51b815260040180806020018281038252602a81526020018061086d602a913960400191505060405180910390fd5b6003805461ff00191661010017905561043a61079b565b565b60025481565b600354610100900460ff1681565b60045481565b6003546301000000900460ff1681565b60035462010000900460ff1681565b6001546001600160a01b031633146104be5760405162461bcd60e51b815260040180806020018281038252602b8152602001806108ec602b913960400191505060405180910390fd5b6003546301000000900460ff1661051c576040805162461bcd60e51b815260206004820152601f60248201527f50726f6a656374206d7573742062652064656c69766572656420666972737400604482015290519081900360640190fd5b6003805464ff0000000019166401000000001790556040517ff07de80c687e5a0bf59b94f47e419d900031a55ad461737601148fea936d6c3090600090a1565b60035460ff1681565b6000546001600160a01b031681565b6000546001600160a01b031633146105bd5760405162461bcd60e51b81526004018080602001828103825260348152602001806109176034913960400191505060405180910390fd5b600454421115610614576040805162461bcd60e51b815260206004820152601c60248201527f44656c697665727920646561646c696e65206861732070617373656400000000604482015290519081900360640190fd5b6003805463ff000000191663010000001790556040517fbe746aa04009afe64dcbc3275d6d12e3efd7234688149f07c3b7ef6ded2e0f6690600090a1565b6001546001600160a01b0316331461069b5760405162461bcd60e51b81526004018080602001828103825260248152602001806108c86024913960400191505060405180910390fd5b6003546301000000900460ff161580156106b6575060045442115b6106f15760405162461bcd60e51b81526004018080602001828103825260318152602001806108976031913960400191505060405180910390fd5b6001546002546040516001600160a01b039092169181156108fc0291906000818181858888f1935050505015801561072d573d6000803e3d6000fd5b50565b600354640100000000900460ff1681565b6001546001600160a01b0316331461078a5760405162461bcd60e51b81526004018080602001828103825260278152602001806108196027913960400191505060405180910390fd5b6003805460ff1916600117905561043a5b60035460ff1680156107b45750600354610100900460ff165b1561043a576003805462ff00001916620100001790556040517fba6893078ed38ff82204a6a7929649babe46c7c505cf92d68489dd580fe6364b90600090a156fe436c69656e74206d757374206163636570742070726f6a6563742064656c69766572794f6e6c792074686520636c69656e742063616e206163636570742074686520636f6e74726163744f6e6c792074686520646576656c6f7065722063616e20696e6974696174652066756e64207472616e736665724f6e6c792074686520646576656c6f7065722063616e206163636570742074686520636f6e747261637450726f6a65637420686173206265656e2064656c697665726564206f7220646561646c696e65206e6f74207061737365644f6e6c792074686520636c69656e742063616e2072657175657374206120726566756e644f6e6c792074686520636c69656e742063616e206163636570742070726f6a6563742064656c69766572794f6e6c792074686520646576656c6f7065722063616e206d61726b207468652070726f6a6563742061732064656c697665726564a265627a7a72315820fe94456d04df7fb3eeb35f06c8cce8f8d667f52da6506e1b90c8833a162676d164736f6c63430005100032",
  "source": "pragma solidity >=0.4.22 <0.7.0;\n\ncontract FreelanceContract {\n    address payable public developer;\n    address payable public client;\n    uint256 public value;\n    bool public clientAccepted;\n    bool public developerAccepted;\n    bool public contractAccepted;\n    bool public projectDelivered;\n    bool public clientAcceptedDelivery;\n    uint256 public deliveryDeadline;\n\n    // Event emitted when both parties accept the contract\n    event ContractAccepted();\n\n    // Event emitted when the project is delivered\n    event ProjectDelivered();\n\n    // Event emitted when the client accepts the project delivery\n    event ClientAcceptedDelivery();\n\n    // Constructor to initialize the contract\n    constructor(\n        address _client,\n        address _developer,\n        uint256 _value,\n        uint256 _deliveryDays\n    ) public {\n        developer = address(uint160(_developer));\n        client = address(uint160(_client));\n        value = _value;\n        deliveryDeadline = block.timestamp + (_deliveryDays * 1 days);\n        clientAccepted = false;\n        developerAccepted = false;\n        contractAccepted = false;\n        projectDelivered = false;\n        clientAcceptedDelivery = false;\n    }\n\n    // Function for the client to accept the contract\n    function acceptContractByClient() public {\n        require(msg.sender == client, \"Only the client can accept the contract\");\n        clientAccepted = true;\n        checkContractAccepted();\n    }\n\n    // Function for the developer to accept the contract\n    function acceptContractByDeveloper() public {\n        require(msg.sender == developer, \"Only the developer can accept the contract\");\n        developerAccepted = true;\n        checkContractAccepted();\n    }\n\n    // Check if both parties have accepted the contract\n    function checkContractAccepted() internal {\n        if (clientAccepted && developerAccepted) {\n            contractAccepted = true;\n            emit ContractAccepted();\n        }\n    }\n\n    // Function for the developer to mark the project as delivered\n    function markProjectDelivered() public {\n        require(msg.sender == developer, \"Only the developer can mark the project as delivered\");\n        require(block.timestamp <= deliveryDeadline, \"Delivery deadline has passed\");\n        projectDelivered = true;\n        emit ProjectDelivered();\n    }\n\n    // Function for the client to accept the project delivery\n    function acceptProjectDeliveryByClient() public {\n        require(msg.sender == client, \"Only the client can accept project delivery\");\n        require(projectDelivered, \"Project must be delivered first\");\n        clientAcceptedDelivery = true;\n        emit ClientAcceptedDelivery();\n    }\n\n    // Function to transfer funds to the developer after project delivery\n    function transferFundsAfterDelivery() public {\n        require(projectDelivered, \"Project must be delivered first\");\n        require(clientAcceptedDelivery, \"Client must accept project delivery\");\n        require(msg.sender == developer, \"Only the developer can initiate fund transfer\");\n        require(address(this).balance >= value, \"Insufficient contract balance\");\n\n        // fee per transacion\n        address payable fee = address(uint160(0x5B38Da6a701c568545dCfcB03FcB875f56beddC4));\n        uint256 fee_amount = (value * 5) / 100;\n        fee.transfer(fee_amount);\n\n        bool success = developer.send(value - fee_amount);\n        require(success, \"Fund transfer failed\");\n    }\n\n    // Function to request a refund from the client if the project is not delivered on time\n    function requestRefund() public {\n        require(msg.sender == client, \"Only the client can request a refund\");\n        require(!projectDelivered && block.timestamp > deliveryDeadline, \"Project has been delivered or deadline not passed\");\n        \n        // Provides refund to the customer\n        client.transfer(value);\n    }\n}\n\n",
  "sourcePath": "/workspaces/zencon-timeb/contracts/Freelancer.sol",
  "compiler": {
    "name": "solc",
    "version": "0.5.16+commit.9c3226ce.Emscripten.clang"
  },
  "schemaVersion": "3.4.16",
  "updatedAt": "2023-09-18T20:57:42.273Z",
  "devdoc": {
    "methods": {}
  },
  "userdoc": {
    "methods": {}
  }
}