{
  "contractName": "FreelanceContract",
  "abi": [
    {
      "inputs": [
        {
          "internalType": "address payable",
          "name": "_client",
          "type": "address"
        },
        {
          "internalType": "address payable",
          "name": "_developer",
          "type": "address"
        },
        {
          "internalType": "uint256",
          "name": "_closed_value",
          "type": "uint256"
        }
      ],
      "stateMutability": "nonpayable",
      "type": "constructor"
    },
    {
      "anonymous": false,
      "inputs": [],
      "name": "ClientAcceptedDelivery",
      "type": "event"
    },
    {
      "anonymous": false,
      "inputs": [],
      "name": "ContractAccepted",
      "type": "event"
    },
    {
      "anonymous": false,
      "inputs": [],
      "name": "ProjectDelivered",
      "type": "event"
    },
    {
      "inputs": [],
      "name": "client",
      "outputs": [
        {
          "internalType": "address payable",
          "name": "",
          "type": "address"
        }
      ],
      "stateMutability": "view",
      "type": "function"
    },
    {
      "inputs": [],
      "name": "clientAccepted",
      "outputs": [
        {
          "internalType": "bool",
          "name": "",
          "type": "bool"
        }
      ],
      "stateMutability": "view",
      "type": "function"
    },
    {
      "inputs": [],
      "name": "clientAcceptedDelivery",
      "outputs": [
        {
          "internalType": "bool",
          "name": "",
          "type": "bool"
        }
      ],
      "stateMutability": "view",
      "type": "function"
    },
    {
      "inputs": [],
      "name": "closed_value",
      "outputs": [
        {
          "internalType": "uint256",
          "name": "",
          "type": "uint256"
        }
      ],
      "stateMutability": "view",
      "type": "function"
    },
    {
      "inputs": [],
      "name": "contractAccepted",
      "outputs": [
        {
          "internalType": "bool",
          "name": "",
          "type": "bool"
        }
      ],
      "stateMutability": "view",
      "type": "function"
    },
    {
      "inputs": [],
      "name": "deliveryDeadline",
      "outputs": [
        {
          "internalType": "uint256",
          "name": "",
          "type": "uint256"
        }
      ],
      "stateMutability": "view",
      "type": "function"
    },
    {
      "inputs": [],
      "name": "developer",
      "outputs": [
        {
          "internalType": "address payable",
          "name": "",
          "type": "address"
        }
      ],
      "stateMutability": "view",
      "type": "function"
    },
    {
      "inputs": [],
      "name": "developerAccepted",
      "outputs": [
        {
          "internalType": "bool",
          "name": "",
          "type": "bool"
        }
      ],
      "stateMutability": "view",
      "type": "function"
    },
    {
      "inputs": [],
      "name": "projectDelivered",
      "outputs": [
        {
          "internalType": "bool",
          "name": "",
          "type": "bool"
        }
      ],
      "stateMutability": "view",
      "type": "function"
    },
    {
      "inputs": [],
      "name": "acceptContractByClient",
      "outputs": [],
      "stateMutability": "nonpayable",
      "type": "function"
    },
    {
      "inputs": [],
      "name": "acceptContractByDeveloper",
      "outputs": [],
      "stateMutability": "nonpayable",
      "type": "function"
    },
    {
      "inputs": [],
      "name": "markProjectDelivered",
      "outputs": [],
      "stateMutability": "nonpayable",
      "type": "function"
    },
    {
      "inputs": [],
      "name": "acceptProjectDeliveryByClient",
      "outputs": [],
      "stateMutability": "nonpayable",
      "type": "function"
    },
    {
      "inputs": [],
      "name": "transferFundsAfterDelivery",
      "outputs": [],
      "stateMutability": "nonpayable",
      "type": "function"
    },
    {
      "inputs": [],
      "name": "requestRefund",
      "outputs": [],
      "stateMutability": "nonpayable",
      "type": "function"
    }
  ],
  "bytecode": "0x6080604052601e600555348015610014575f80fd5b506040516109bd3803806109bd833981016040819052610033916100b5565b5f80546001600160a01b038085166001600160a01b031992831617909255600180549286169290911691909117905560028190556005546100779062015180610102565b610081904261011f565b60045550506003805464ffffffffff1916905550610132565b80516001600160a01b03811681146100b0575f80fd5b919050565b5f805f606084860312156100c7575f80fd5b6100d08461009a565b92506100de6020850161009a565b9150604084015190509250925092565b634e487b7160e01b5f52601160045260245ffd5b8082028115828204841417610119576101196100ee565b92915050565b80820180821115610119576101196100ee565b61087e8061013f5f395ff3fe608060405234801561000f575f80fd5b50600436106100f0575f3560e01c80638f13b59a11610093578063d48f108911610063578063d48f1089146101c6578063d5cef133146101ce578063ea180192146101d6578063ec119253146101eb575f80fd5b80638f13b59a1461018c578063a0d208981461019f578063a729c92f146101a7578063ca4b208b146101b4575f80fd5b80633d952ad9116100ce5780633d952ad91461014557806346e795d91461014d57806357549eb01461016f57806374c7452114610178575f80fd5b8063109e94cf146100f457806321c3ad4d1461012457806323d285fd1461013b575b5f80fd5b600154610107906001600160a01b031681565b6040516001600160a01b0390911681526020015b60405180910390f35b61012d60025481565b60405190815260200161011b565b6101436101f3565b005b6101436103c1565b60035461015f90610100900460ff1681565b604051901515815260200161011b565b61012d60045481565b60035461015f906301000000900460ff1681565b60035461015f9062010000900460ff1681565b610143610446565b60035461015f9060ff1681565b5f54610107906001600160a01b031681565b61014361054c565b610143610651565b60035461015f90640100000000900460ff1681565b610143610774565b6003546301000000900460ff166102515760405162461bcd60e51b815260206004820152601f60248201527f50726f6a656374206d7573742062652064656c6976657265642066697273740060448201526064015b60405180910390fd5b600354640100000000900460ff166102b75760405162461bcd60e51b815260206004820152602360248201527f436c69656e74206d757374206163636570742070726f6a6563742064656c697660448201526265727960e81b6064820152608401610248565b5f546001600160a01b031633146103265760405162461bcd60e51b815260206004820152602d60248201527f4f6e6c792074686520646576656c6f7065722063616e20696e6974696174652060448201526c333ab732103a3930b739b332b960991b6064820152608401610248565b5f80546002546040516001600160a01b03909216918381818185875af1925050503d805f8114610371576040519150601f19603f3d011682016040523d82523d5f602084013e610376565b606091505b50509050806103ba5760405162461bcd60e51b815260206004820152601060248201526f2a3930b739b332b9103330b4b632b21760811b6044820152606401610248565b505f600255565b5f546001600160a01b0316331461042d5760405162461bcd60e51b815260206004820152602a60248201527f4f6e6c792074686520646576656c6f7065722063616e20616363657074207468604482015269194818dbdb9d1c9858dd60b21b6064820152608401610248565b6003805461ff0019166101001790556104446107ef565b565b6001546001600160a01b031633146104b45760405162461bcd60e51b815260206004820152602b60248201527f4f6e6c792074686520636c69656e742063616e206163636570742070726f6a6560448201526a63742064656c697665727960a81b6064820152608401610248565b6003546301000000900460ff1661050d5760405162461bcd60e51b815260206004820152601f60248201527f50726f6a656374206d7573742062652064656c697665726564206669727374006044820152606401610248565b6003805464ff0000000019166401000000001790556040517ff07de80c687e5a0bf59b94f47e419d900031a55ad461737601148fea936d6c30905f90a1565b5f546001600160a01b031633146105c25760405162461bcd60e51b815260206004820152603460248201527f4f6e6c792074686520646576656c6f7065722063616e206d61726b20746865206044820152731c1c9bda9958dd08185cc819195b1a5d995c995960621b6064820152608401610248565b6004544211156106145760405162461bcd60e51b815260206004820152601c60248201527f44656c697665727920646561646c696e652068617320706173736564000000006044820152606401610248565b6003805463ff000000191663010000001790556040517fbe746aa04009afe64dcbc3275d6d12e3efd7234688149f07c3b7ef6ded2e0f66905f90a1565b6001546001600160a01b031633146106b75760405162461bcd60e51b8152602060048201526024808201527f4f6e6c792074686520636c69656e742063616e20726571756573742061207265604482015263199d5b9960e21b6064820152608401610248565b6003546301000000900460ff161580156106d2575060045442115b6107385760405162461bcd60e51b815260206004820152603160248201527f50726f6a65637420686173206265656e2064656c697665726564206f7220646560448201527018591b1a5b99481b9bdd081c185cdcd959607a1b6064820152608401610248565b6001546002546040516001600160a01b039092169181156108fc0291905f818181858888f19350505050158015610771573d5f803e3d5ffd5b50565b6001546001600160a01b031633146107de5760405162461bcd60e51b815260206004820152602760248201527f4f6e6c792074686520636c69656e742063616e206163636570742074686520636044820152661bdb9d1c9858dd60ca1b6064820152608401610248565b6003805460ff191660011790556104445b60035460ff1680156108085750600354610100900460ff165b15610444576003805462ff00001916620100001790556040517fba6893078ed38ff82204a6a7929649babe46c7c505cf92d68489dd580fe6364b905f90a156fea26469706673582212205a758c4235fe232f30b5c262a2df009b5078bf07bd5b570b69e8f43f73dc434f64736f6c63430008150033",
  "immutableReferences": {},
  "source": "// SPDX-License-Identifier: MIT\n\npragma solidity ^0.8.0;\n\ncontract FreelanceContract {\n    address payable public developer;\n    address payable public client;\n    uint256 public closed_value;\n    bool public clientAccepted;\n    bool public developerAccepted;\n    bool public contractAccepted;\n    bool public projectDelivered;\n    bool public clientAcceptedDelivery;\n    uint256 public deliveryDeadline;\n    uint256 _deliveryDays = 30;\n\n    // Event emitted when both parties accept the contract\n    event ContractAccepted();\n\n    // Event emitted when the project is delivered\n    event ProjectDelivered();\n\n    // Event emitted when the client accepts the project delivery\n    event ClientAcceptedDelivery();\n\n    // Constructor to initialize the contract\n    constructor(\n        address payable _client,\n        address payable _developer,\n        uint256 _closed_value\n    ) {\n        developer = _developer;\n        client = _client;\n        closed_value = _closed_value;\n        deliveryDeadline = block.timestamp + (_deliveryDays * 1 days);\n        clientAccepted = false;\n        developerAccepted = false;\n        contractAccepted = false;\n        projectDelivered = false;\n        clientAcceptedDelivery = false;\n    }\n\n    // Function for the client to accept the contract\n    function acceptContractByClient() public {\n        require(msg.sender == client, \"Only the client can accept the contract\");\n        clientAccepted = true;\n        checkContractAccepted();\n    }\n\n    // Function for the developer to accept the contract\n    function acceptContractByDeveloper() public {\n        require(msg.sender == developer, \"Only the developer can accept the contract\");\n        developerAccepted = true;\n        checkContractAccepted();\n    }\n\n    // Check if both parties have accepted the contract\n    function checkContractAccepted() internal {\n        if (clientAccepted && developerAccepted) {\n            contractAccepted = true;\n            emit ContractAccepted();\n        }\n    }\n\n    // Function for the developer to mark the project as delivered\n    function markProjectDelivered() public {\n        require(msg.sender == developer, \"Only the developer can mark the project as delivered\");\n        require(block.timestamp <= deliveryDeadline, \"Delivery deadline has passed\");\n        projectDelivered = true;\n        emit ProjectDelivered();\n    }\n\n    // Function for the client to accept the project delivery\n    function acceptProjectDeliveryByClient() public {\n        require(msg.sender == client, \"Only the client can accept project delivery\");\n        require(projectDelivered, \"Project must be delivered first\");\n        clientAcceptedDelivery = true;\n        emit ClientAcceptedDelivery();\n    }\n\n    // Function to transfer funds to the developer after project delivery\n    function transferFundsAfterDelivery() public {\n        require(projectDelivered, \"Project must be delivered first\");\n        require(clientAcceptedDelivery, \"Client must accept project delivery\");\n        require(msg.sender == developer, \"Only the developer can initiate fund transfer\");\n\n        // fee per transacion\n\n        (bool success, ) = developer.call{value: closed_value}(\"\");\n        require(success, \"Transfer failed.\");\n        closed_value = 0;\n    }\n\n    // Function to request a refund from the client if the project is not delivered on time\n    function requestRefund() public {\n        require(msg.sender == client, \"Only the client can request a refund\");\n        require(!projectDelivered && block.timestamp > deliveryDeadline, \"Project has been delivered or deadline not passed\");\n        \n        // Provides refund to the customer\n        client.transfer(closed_value);\n    }\n}\n\n",
  "sourcePath": "/workspaces/zencon-timeb/contracts/Freelancer.sol",
  "compiler": {
    "name": "solc",
    "version": "0.8.21+commit.d9974bed.Emscripten.clang"
  },
  "schemaVersion": "3.4.16",
  "updatedAt": "2023-09-19T20:05:46.460Z",
  "devdoc": {
    "kind": "dev",
    "methods": {},
    "version": 1
  },
  "userdoc": {
    "kind": "user",
    "methods": {},
    "version": 1
  }
}