{
  "contractName": "FreelanceContract",
  "abi": [
    {
      "inputs": [
        {
          "internalType": "address",
          "name": "_client",
          "type": "address"
        },
        {
          "internalType": "address",
          "name": "_developer",
          "type": "address"
        },
        {
          "internalType": "uint256",
          "name": "_value",
          "type": "uint256"
        }
      ],
      "payable": false,
      "stateMutability": "nonpayable",
      "type": "constructor"
    },
    {
      "anonymous": false,
      "inputs": [],
      "name": "ContractAccepted",
      "type": "event"
    },
    {
      "constant": true,
      "inputs": [],
      "name": "client",
      "outputs": [
        {
          "internalType": "address",
          "name": "",
          "type": "address"
        }
      ],
      "payable": false,
      "stateMutability": "view",
      "type": "function"
    },
    {
      "constant": true,
      "inputs": [],
      "name": "clientAccepted",
      "outputs": [
        {
          "internalType": "bool",
          "name": "",
          "type": "bool"
        }
      ],
      "payable": false,
      "stateMutability": "view",
      "type": "function"
    },
    {
      "constant": true,
      "inputs": [],
      "name": "contractAccepted",
      "outputs": [
        {
          "internalType": "bool",
          "name": "",
          "type": "bool"
        }
      ],
      "payable": false,
      "stateMutability": "view",
      "type": "function"
    },
    {
      "constant": true,
      "inputs": [],
      "name": "developer",
      "outputs": [
        {
          "internalType": "address",
          "name": "",
          "type": "address"
        }
      ],
      "payable": false,
      "stateMutability": "view",
      "type": "function"
    },
    {
      "constant": true,
      "inputs": [],
      "name": "developerAccepted",
      "outputs": [
        {
          "internalType": "bool",
          "name": "",
          "type": "bool"
        }
      ],
      "payable": false,
      "stateMutability": "view",
      "type": "function"
    },
    {
      "constant": true,
      "inputs": [],
      "name": "value",
      "outputs": [
        {
          "internalType": "uint256",
          "name": "",
          "type": "uint256"
        }
      ],
      "payable": false,
      "stateMutability": "view",
      "type": "function"
    },
    {
      "constant": false,
      "inputs": [],
      "name": "acceptContractByClient",
      "outputs": [],
      "payable": false,
      "stateMutability": "nonpayable",
      "type": "function"
    },
    {
      "constant": false,
      "inputs": [],
      "name": "acceptContractByDeveloper",
      "outputs": [],
      "payable": false,
      "stateMutability": "nonpayable",
      "type": "function"
    }
  ],
  "bytecode": "0x608060405234801561001057600080fd5b5060405161038b38038061038b8339818101604052606081101561003357600080fd5b5080516020820151604090920151600080546001600160a01b039485166001600160a01b031991821617909155600180549490931693169290921790556002556003805462ffffff191690556102fd8061008e6000396000f3fe608060405234801561001057600080fd5b50600436106100885760003560e01c80638f13b59a1161005b5780638f13b59a146100f1578063a729c92f146100f9578063ca4b208b14610101578063ec1192531461010957610088565b8063109e94cf1461008d5780633d952ad9146100b15780633fa4f245146100bb57806346e795d9146100d5575b600080fd5b610095610111565b604080516001600160a01b039092168252519081900360200190f35b6100b9610120565b005b6100c3610184565b60408051918252519081900360200190f35b6100dd61018a565b604080519115158252519081900360200190f35b6100dd610199565b6100dd6101a2565b6100956101b0565b6100b96101bf565b6001546001600160a01b031681565b6000546001600160a01b031633146101695760405162461bcd60e51b815260040180806020018281038252602a81526020018061029f602a913960400191505060405180910390fd5b6003805462ff000019166201000017905561018261021b565b565b60025481565b60035462010000900460ff1681565b60035460ff1681565b600354610100900460ff1681565b6000546001600160a01b031681565b6001546001600160a01b031633146102085760405162461bcd60e51b81526004018080602001828103825260278152602001806102786027913960400191505060405180910390fd5b6003805461ff0019166101001790556101825b600354610100900460ff16801561023a575060035462010000900460ff165b15610182576003805460ff191660011790556040517fba6893078ed38ff82204a6a7929649babe46c7c505cf92d68489dd580fe6364b90600090a156fe4f6e6c792074686520636c69656e742063616e206163636570742074686520636f6e74726163744f6e6c792074686520646576656c6f7065722063616e206163636570742074686520636f6e7472616374a265627a7a72315820b26194825a5ce89a43d62600aa19824bc2baa53a3fab468ba3124be2058e441c64736f6c63430005100032",
  "source": "pragma solidity >=0.4.22 <0.7.0;\n\ncontract FreelanceContract {\n    address public developer;\n    address public client;\n    uint256 public value;\n    bool public contractAccepted;\n    bool public clientAccepted;\n    bool public developerAccepted;\n\n    // Event emitted when conditions are accepted\n    event ContractAccepted();\n\n    // Constructor to initialize the contract\n    constructor(\n        address _client,\n        address _developer,\n        uint256 _value\n    ) public {\n        developer = _developer;\n        client = _client;\n        value = _value;\n        contractAccepted = false;\n        clientAccepted = false;\n        developerAccepted = false;\n    }\n\n    // Function for the client to accept the contract\n    function acceptContractByClient() public {\n        require(msg.sender == client, \"Only the client can accept the contract\");\n        clientAccepted = true;\n        checkContractAccepted();\n    }\n\n    // Function for the developer to accept the contract\n    function acceptContractByDeveloper() public {\n        require(msg.sender == developer, \"Only the developer can accept the contract\");\n        developerAccepted = true;\n        checkContractAccepted();\n    }\n\n    // Check if both parties have accepted the contract\n    function checkContractAccepted() internal {\n        if (clientAccepted && developerAccepted) {\n            contractAccepted = true;\n            emit ContractAccepted();\n        }\n    }\n}\n\n//\n//    function acceptConditions() public {\n//        // Implement acceptance of general conditions\n//    }\n//\n//    function startProject() public {\n//        // Implement project start actions\n//    }\n//\n//    function developerObligations() public {\n//        // Implement developer obligations\n//    }\n//\n//    function payment() public {\n//        // Implement payment functionality\n//    }\n//\n//    function informAdjustments() public {\n//        // Implement informing adjustments\n//    }\n//\n//    function terminateContract() public {\n//        // Implement termination of the contract\n//    }\n//}\n//",
  "sourcePath": "/workspaces/zencon-timeb/contracts/Freelancer.sol",
  "compiler": {
    "name": "solc",
    "version": "0.5.16+commit.9c3226ce.Emscripten.clang"
  },
  "schemaVersion": "3.4.16",
  "updatedAt": "2023-09-18T15:42:12.177Z",
  "devdoc": {
    "methods": {}
  },
  "userdoc": {
    "methods": {}
  }
}